{
  "contractName": "CoinPot",
  "abi": [
    {
      "inputs": [
        {
          "internalType": "address",
          "name": "tokenAddress",
          "type": "address"
        }
      ],
      "stateMutability": "nonpayable",
      "type": "constructor"
    },
    {
      "inputs": [],
      "name": "getPot",
      "outputs": [
        {
          "internalType": "uint256",
          "name": "balance",
          "type": "uint256"
        },
        {
          "internalType": "uint256",
          "name": "lastLotteryDate",
          "type": "uint256"
        },
        {
          "internalType": "uint16",
          "name": "daysBetweenLottery",
          "type": "uint16"
        },
        {
          "internalType": "uint256",
          "name": "percentageTax",
          "type": "uint256"
        }
      ],
      "stateMutability": "view",
      "type": "function"
    },
    {
      "inputs": [
        {
          "internalType": "uint256",
          "name": "amount",
          "type": "uint256"
        },
        {
          "internalType": "uint256",
          "name": "lockDays",
          "type": "uint256"
        }
      ],
      "name": "newLock",
      "outputs": [],
      "stateMutability": "payable",
      "type": "function"
    },
    {
      "inputs": [],
      "name": "getActiveLock",
      "outputs": [
        {
          "internalType": "uint256",
          "name": "balance",
          "type": "uint256"
        },
        {
          "internalType": "uint256",
          "name": "noOfDays",
          "type": "uint256"
        },
        {
          "internalType": "uint256",
          "name": "createdAt",
          "type": "uint256"
        },
        {
          "internalType": "uint256",
          "name": "unlockDate",
          "type": "uint256"
        }
      ],
      "stateMutability": "view",
      "type": "function"
    },
    {
      "inputs": [
        {
          "internalType": "uint256",
          "name": "amount",
          "type": "uint256"
        }
      ],
      "name": "withdrawFromLock",
      "outputs": [],
      "stateMutability": "nonpayable",
      "type": "function"
    },
    {
      "inputs": [
        {
          "internalType": "uint256",
          "name": "amount",
          "type": "uint256"
        }
      ],
      "name": "depositInLock",
      "outputs": [],
      "stateMutability": "payable",
      "type": "function"
    },
    {
      "inputs": [],
      "name": "runLottery",
      "outputs": [],
      "stateMutability": "nonpayable",
      "type": "function"
    },
    {
      "inputs": [],
      "name": "getLotteryWinners",
      "outputs": [
        {
          "internalType": "address[5]",
          "name": "addresses",
          "type": "address[5]"
        },
        {
          "internalType": "uint256[5]",
          "name": "amounts",
          "type": "uint256[5]"
        },
        {
          "internalType": "uint256[5]",
          "name": "timestamps",
          "type": "uint256[5]"
        }
      ],
      "stateMutability": "view",
      "type": "function"
    }
  ],
  "bytecode": "0x608060405234801561001057600080fd5b506040516114b23803806114b28339818101604052602081101561003357600080fd5b810190808051906020019092919050505080600660006101000a81548173ffffffffffffffffffffffffffffffffffffffff021916908373ffffffffffffffffffffffffffffffffffffffff160217905550806000806101000a81548173ffffffffffffffffffffffffffffffffffffffff021916908373ffffffffffffffffffffffffffffffffffffffff160217905550604051806080016040528060008152602001428152602001600761ffff16815260200160058152506001600082015181600001556020820151816001015560408201518160020160006101000a81548161ffff021916908361ffff160217905550606082015181600301559050505061136f806101436000396000f3fe6080604052600436106100705760003560e01c80635674a3ed1161004e5780635674a3ed146101a55780636990483a146101bc578063ce13975b146101f4578063f54a213f1461022257610070565b8063109e2fab14610075578063403c9fa8146100b05780635592fc71146100f4575b600080fd5b34801561008157600080fd5b506100ae6004803603602081101561009857600080fd5b8101908080359060200190929190505050610262565b005b3480156100bc57600080fd5b506100c561063a565b604051808581526020018481526020018361ffff16815260200182815260200194505050505060405180910390f35b34801561010057600080fd5b50610109610673565b6040518084600560200280838360005b83811015610134578082015181840152602081019050610119565b5050505090500183600560200280838360005b83811015610162578082015181840152602081019050610147565b5050505090500182600560200280838360005b83811015610190578082015181840152602081019050610175565b50505050905001935050505060405180910390f35b3480156101b157600080fd5b506101ba6107d1565b005b6101f2600480360360408110156101d257600080fd5b810190808035906020019092919080359060200190929190505050610aaf565b005b6102206004803603602081101561020a57600080fd5b8101908080359060200190929190505050610daa565b005b34801561022e57600080fd5b50610237611069565b6040518085815260200184815260200183815260200182815260200194505050505060405180910390f35b61026a61123b565b600760003373ffffffffffffffffffffffffffffffffffffffff1673ffffffffffffffffffffffffffffffffffffffff16815260200190815260200160002060405180608001604052908160008201548152602001600182015481526020016002820154815260200160038201548152505090506000816000015111610358576040517f08c379a000000000000000000000000000000000000000000000000000000000815260040180806020018281038252601f8152602001807f63616e6e6f742077697468647261772066726f6d20656d707479206c6f636b0081525060200191505060405180910390fd5b80600001518211156103b5576040517f08c379a00000000000000000000000000000000000000000000000000000000081526004018080602001828103825260238152602001806112d46023913960400191505060405180910390fd5b600081606001514210905080156104a657600060646001600301548502816103d957fe5b0490508260000151818501111561043b576040517f08c379a000000000000000000000000000000000000000000000000000000000815260040180806020018281038252602c8152602001806112a8602c913960400191505060405180910390fd5b808401600760003373ffffffffffffffffffffffffffffffffffffffff1673ffffffffffffffffffffffffffffffffffffffff1681526020019081526020016000206000016000828254039250508190555080600160000160008282540192505081905550506104f7565b82600760003373ffffffffffffffffffffffffffffffffffffffff1673ffffffffffffffffffffffffffffffffffffffff168152602001908152602001600020600001600082825403925050819055505b60008054906101000a900473ffffffffffffffffffffffffffffffffffffffff1673ffffffffffffffffffffffffffffffffffffffff1663a9059cbb33856040518363ffffffff1660e01b8152600401808373ffffffffffffffffffffffffffffffffffffffff16815260200182815260200192505050602060405180830381600087803b15801561058857600080fd5b505af115801561059c573d6000803e3d6000fd5b505050506040513d60208110156105b257600080fd5b8101908080519060200190929190505050610635576040517f08c379a000000000000000000000000000000000000000000000000000000000815260040180806020018281038252600f8152602001807f5472616e73666572206661696c6564000000000000000000000000000000000081525060200191505060405180910390fd5b505050565b6000806000806001600001546001800154600160020160009054906101000a900461ffff16600160030154935093509350935090919293565b61067b611263565b610683611285565b61068b611285565b6000600190505b6006811080156106a85750600060058054905014155b80156106b957506005805490508111155b156107cb57600081600580549050039050600581815481106106d757fe5b906000526020600020906003020160010160009054906101000a900473ffffffffffffffffffffffffffffffffffffffff1685600184036005811061071857fe5b602002019073ffffffffffffffffffffffffffffffffffffffff16908173ffffffffffffffffffffffffffffffffffffffff16815250506005818154811061075c57fe5b90600052602060002090600302016002015484600184036005811061077d57fe5b6020020181815250506005818154811061079357fe5b9060005260206000209060030201600001548360018403600581106107b457fe5b602002018181525050818060010192505050610692565b50909192565b606060088054905067ffffffffffffffff811180156107ef57600080fd5b5060405190808252806020026020018201604052801561081e5781602001602082028036833780820191505090505b509050600080600090505b60088054905081101561091a5760006008828154811061084557fe5b9060005260206000200160009054906101000a900473ffffffffffffffffffffffffffffffffffffffff16905042600760008373ffffffffffffffffffffffffffffffffffffffff1673ffffffffffffffffffffffffffffffffffffffff16815260200190815260200160002060030154111561090c57808484815181106108c957fe5b602002602001019073ffffffffffffffffffffffffffffffffffffffff16908173ffffffffffffffffffffffffffffffffffffffff168152505082806001019350505b508080600101915050610829565b506000814233604051602001808381526020018273ffffffffffffffffffffffffffffffffffffffff1660601b8152601401925050506040516020818303038152906040528051906020012060001c8161097057fe5b069050600083828151811061098157fe5b60200260200101519050600160000154600760008373ffffffffffffffffffffffffffffffffffffffff1673ffffffffffffffffffffffffffffffffffffffff16815260200190815260200160002060000160008282540192505081905550600560405180606001604052804281526020018373ffffffffffffffffffffffffffffffffffffffff16815260200160016000015481525090806001815401808255809150506001900390600052602060002090600302016000909190919091506000820151816000015560208201518160010160006101000a81548173ffffffffffffffffffffffffffffffffffffffff021916908373ffffffffffffffffffffffffffffffffffffffff160217905550604082015181600201555050600060016000018190555050505050565b60008211610b08576040517f08c379a00000000000000000000000000000000000000000000000000000000081526004018080602001828103825260228152602001806113186022913960400191505060405180910390fd5b6000600760003373ffffffffffffffffffffffffffffffffffffffff1673ffffffffffffffffffffffffffffffffffffffff1681526020019081526020016000206000015414610ba3576040517f08c379a00000000000000000000000000000000000000000000000000000000081526004018080602001828103825260218152602001806112f76021913960400191505060405180910390fd5b60008054906101000a900473ffffffffffffffffffffffffffffffffffffffff1673ffffffffffffffffffffffffffffffffffffffff166323b872dd3330856040518463ffffffff1660e01b8152600401808473ffffffffffffffffffffffffffffffffffffffff1681526020018373ffffffffffffffffffffffffffffffffffffffff1681526020018281526020019350505050602060405180830381600087803b158015610c5257600080fd5b505af1158015610c66573d6000803e3d6000fd5b505050506040513d6020811015610c7c57600080fd5b8101908080519060200190929190505050610cff576040517f08c379a000000000000000000000000000000000000000000000000000000000815260040180806020018281038252600f8152602001807f5472616e73666572206661696c6564000000000000000000000000000000000081525060200191505060405180910390fd5b6000429050600082620151800282019050610d1933611189565b604051806080016040528085815260200184815260200183815260200182815250600760003373ffffffffffffffffffffffffffffffffffffffff1673ffffffffffffffffffffffffffffffffffffffff1681526020019081526020016000206000820151816000015560208201518160010155604082015181600201556060820151816003015590505050505050565b60008111610e03576040517f08c379a00000000000000000000000000000000000000000000000000000000081526004018080602001828103825260228152602001806113186022913960400191505060405180910390fd5b42600760003373ffffffffffffffffffffffffffffffffffffffff1673ffffffffffffffffffffffffffffffffffffffff1681526020019081526020016000206003015411610eba576040517f08c379a00000000000000000000000000000000000000000000000000000000081526004018080602001828103825260208152602001807f73656e64657220646f6573206e6f74206861766520616374697665206c6f636b81525060200191505060405180910390fd5b60008054906101000a900473ffffffffffffffffffffffffffffffffffffffff1673ffffffffffffffffffffffffffffffffffffffff166323b872dd3330846040518463ffffffff1660e01b8152600401808473ffffffffffffffffffffffffffffffffffffffff1681526020018373ffffffffffffffffffffffffffffffffffffffff1681526020018281526020019350505050602060405180830381600087803b158015610f6957600080fd5b505af1158015610f7d573d6000803e3d6000fd5b505050506040513d6020811015610f9357600080fd5b8101908080519060200190929190505050611016576040517f08c379a000000000000000000000000000000000000000000000000000000000815260040180806020018281038252600f8152602001807f5472616e73666572206661696c6564000000000000000000000000000000000081525060200191505060405180910390fd5b80600760003373ffffffffffffffffffffffffffffffffffffffff1673ffffffffffffffffffffffffffffffffffffffff1681526020019081526020016000206000016000828254019250508190555050565b600080600080600760003373ffffffffffffffffffffffffffffffffffffffff1673ffffffffffffffffffffffffffffffffffffffff16815260200190815260200160002060000154600760003373ffffffffffffffffffffffffffffffffffffffff1673ffffffffffffffffffffffffffffffffffffffff16815260200190815260200160002060010154600760003373ffffffffffffffffffffffffffffffffffffffff1673ffffffffffffffffffffffffffffffffffffffff16815260200190815260200160002060020154600760003373ffffffffffffffffffffffffffffffffffffffff1673ffffffffffffffffffffffffffffffffffffffff16815260200190815260200160002060030154935093509350935090919293565b6000600760008373ffffffffffffffffffffffffffffffffffffffff1673ffffffffffffffffffffffffffffffffffffffff168152602001908152602001600020600201541415611238576008819080600181540180825580915050600190039060005260206000200160009091909190916101000a81548173ffffffffffffffffffffffffffffffffffffffff021916908373ffffffffffffffffffffffffffffffffffffffff1602179055505b50565b6040518060800160405280600081526020016000815260200160008152602001600081525090565b6040518060a00160405280600590602082028036833780820191505090505090565b6040518060a0016040528060059060208202803683378082019150509050509056fe62616c616e6365206d7573742062652067726561746572207468616e20616d6f756e7420706c75732074617862616c616e6365206d7573742062652067726561746572207468616e20616d6f756e7463757272656e74206c6f636b20686173206e6f74206265656e20636c6561726564616d6f756e742068617320746f2062652067726561746572207468616e207a65726fa264697066735822122066669d260607c7736e73b99227e2c7ec76dfd42b480973d74fc94cbf10da526e64736f6c634300060c0033",
  "immutableReferences": {},
  "source": "// SPDX-License-Identifier: MIT\n\npragma solidity >=0.4.21 <8.10.0;\n\nimport \"./IERC20Token.sol\";\n\nstruct Pot {\n\tuint256 balance;\n\tuint256 lastLotteryDate;\n\tuint16 daysBetweenLottery;\n\tuint256 percentageTax;\n}\n\nstruct Lock {\n\tuint256 balance;\n\tuint256 noOfDays;\n\tuint256 createdAt;\n\tuint256 unlockDate;\n}\n\nstruct Winner {\n\tuint256 timestamp;\n\taddress winnerAddress;\n\tuint256 amount;\n}\n\ncontract CoinPot {\n\tIERC20Token token;\n\tPot pot;\n\tWinner[] winners;\n\n\taddress internal cUSDTokenAddress;\n\tmapping(address => Lock) internal coinLocks;\n\taddress[] owners;\n\n\tconstructor(address tokenAddress) public {\n\t\tcUSDTokenAddress = tokenAddress;\n\t\ttoken = IERC20Token(tokenAddress);\n\t\tpot = Pot(0, block.timestamp, 7, 5);\n\t}\n\n\tfunction addLockOwner(address ownerAddress) internal {\n\t\tif (coinLocks[ownerAddress].createdAt == 0) {\n\t\t\towners.push(ownerAddress);\n\t\t}\n\t}\n\n\tfunction getPot()\n\t\tpublic\n\t\tview\n\t\treturns (\n\t\t\tuint256 balance,\n\t\t\tuint256 lastLotteryDate,\n\t\t\tuint16 daysBetweenLottery,\n\t\t\tuint256 percentageTax\n\t\t)\n\t{\n\t\treturn (\n\t\t\tpot.balance,\n\t\t\tpot.lastLotteryDate,\n\t\t\tpot.daysBetweenLottery,\n\t\t\tpot.percentageTax\n\t\t);\n\t}\n\n\tfunction newLock(uint256 amount, uint256 lockDays) public payable {\n\t\trequire(amount > 0, \"amount has to be greater than zero\");\n\t\trequire(\n\t\t\tcoinLocks[msg.sender].balance == 0,\n\t\t\t\"current lock has not been cleared\"\n\t\t);\n\t\trequire(\n\t\t\ttoken.transferFrom(msg.sender, address(this), amount),\n\t\t\t\"Transfer failed\"\n\t\t);\n\n\t\tuint256 createdAt = block.timestamp;\n\t\tuint256 unlockDate = createdAt + (1 days * lockDays);\n\n\t\taddLockOwner(msg.sender);\n\t\tcoinLocks[msg.sender] = Lock(amount, lockDays, createdAt, unlockDate);\n\t}\n\n\tfunction getActiveLock()\n\t\tpublic\n\t\tview\n\t\treturns (\n\t\t\tuint256 balance,\n\t\t\tuint256 noOfDays,\n\t\t\tuint256 createdAt,\n\t\t\tuint256 unlockDate\n\t\t)\n\t{\n\t\treturn (\n\t\t\tcoinLocks[msg.sender].balance,\n\t\t\tcoinLocks[msg.sender].noOfDays,\n\t\t\tcoinLocks[msg.sender].createdAt,\n\t\t\tcoinLocks[msg.sender].unlockDate\n\t\t);\n\t}\n\n\tfunction withdrawFromLock(uint256 amount) public {\n\t\tLock memory activeLock = coinLocks[msg.sender];\n\n\t\trequire(activeLock.balance > 0, \"cannot withdraw from empty lock\");\n\t\trequire(\n\t\t\tamount <= activeLock.balance,\n\t\t\t\"balance must be greater than amount\"\n\t\t);\n\n\t\tbool isEarlyWithdraw = block.timestamp < activeLock.unlockDate;\n\n\t\tif (isEarlyWithdraw) {\n\t\t\tuint256 potDeposit = (amount * pot.percentageTax) / 100;\n\n\t\t\trequire(\n\t\t\t\t(amount + potDeposit) <= activeLock.balance,\n\t\t\t\t\"balance must be greater than amount plus tax\"\n\t\t\t);\n\n\t\t\tcoinLocks[msg.sender].balance -= amount + potDeposit;\n\t\t\tpot.balance += potDeposit;\n\t\t} else {\n\t\t\tcoinLocks[msg.sender].balance -= amount;\n\t\t}\n\n\t\trequire(token.transfer(msg.sender, amount), \"Transfer failed\");\n\t}\n\n\tfunction depositInLock(uint256 amount) public payable {\n\t\trequire(amount > 0, \"amount has to be greater than zero\");\n\t\trequire(\n\t\t\tcoinLocks[msg.sender].unlockDate > block.timestamp,\n\t\t\t\"sender does not have active lock\"\n\t\t);\n\t\trequire(\n\t\t\ttoken.transferFrom(msg.sender, address(this), amount),\n\t\t\t\"Transfer failed\"\n\t\t);\n\n\t\tcoinLocks[msg.sender].balance += amount;\n\t}\n\n\tfunction runLottery() public {\n\t\taddress[] memory possibleWinners = new address[](owners.length);\n\t\tuint256 noOfPossibleWinners;\n\n\t\tfor (uint256 i = 0; i < owners.length; i++) {\n\t\t\taddress owner = owners[i];\n\n\t\t\tif (coinLocks[owner].unlockDate > block.timestamp) {\n\t\t\t\tpossibleWinners[noOfPossibleWinners] = owner;\n\t\t\t\tnoOfPossibleWinners++;\n\t\t\t}\n\t\t}\n\n\t\t// todo: more secure random number generation\n\t\tuint256 winnerIndex = uint256(\n\t\t\tkeccak256(abi.encodePacked(block.timestamp, msg.sender))\n\t\t) % noOfPossibleWinners;\n\t\taddress winner = possibleWinners[winnerIndex];\n\n\t\tcoinLocks[winner].balance += pot.balance;\n\t\twinners.push(Winner(block.timestamp, winner, pot.balance));\n\t\tpot.balance = 0;\n\t}\n\n\tfunction getLotteryWinners()\n\t\tpublic\n\t\tview\n\t\treturns (\n\t\t\taddress[5] memory addresses,\n\t\t\tuint256[5] memory amounts,\n\t\t\tuint256[5] memory timestamps\n\t\t)\n\t{\n\t\tuint256 counter = 1;\n\n\t\twhile (\n\t\t\tcounter < 6 && winners.length != 0 && counter <= winners.length\n\t\t) {\n\t\t\tuint256 i = winners.length - counter;\n\n\t\t\taddresses[counter - 1] = winners[i].winnerAddress;\n\t\t\tamounts[counter - 1] = winners[i].amount;\n\t\t\ttimestamps[counter - 1] = winners[i].timestamp;\n\n\t\t\tcounter++;\n\t\t}\n\n\t\treturn (addresses, amounts, timestamps);\n\t}\n}\n",
  "sourcePath": "/home/bolarinwa/dev/coin-pot/contracts/CoinPot.sol",
  "compiler": {
    "name": "solc",
    "version": "0.6.12+commit.27d51765.Emscripten.clang"
  },
  "schemaVersion": "3.4.7",
  "updatedAt": "2022-04-15T17:03:33.706Z",
  "devdoc": {
    "kind": "dev",
    "methods": {},
    "version": 1
  },
  "userdoc": {
    "kind": "user",
    "methods": {},
    "version": 1
  }
}